:1000000045C0000060C000005EC000005CC0000091
:100010005AC0000058C0000056C0000054C0000084
:1000200052C0000050C000004EC000004CC0000094
:100030004AC000007EC0000046C0000044C000006E
:1000400042C0000040C000003EC000003CC00000B4
:100050003AC0000038C0000036C0000034C00000C4
:1000600032C0000030C000002EC000002CC00000D4
:100070002AC0000028C0000026C0000024C00000E4
:1000800022C0000020C000001EC0000011241FBEBE
:10009000CFEFD0E4DEBFCDBF11E0A0E0B1E0EEE8ED
:1000A000F2E000E00BBF02C007900D92AE30B10746
:1000B000D9F721E0AEE0B1E001C01D92A331B20753
:1000C000E1F7CBD0E2C09CCF6093000170930101B7
:1000D000809302019093030160930E0170930F01CE
:1000E000809310019093110108958BE0809381001B
:1000F0008DE790E0909389008093880082E0809360
:100100006F00109285001092840080910001909100
:100110000101A0910201B091030180930E0190931F
:100120000F01A0931001B09311018FB780688FBFAA
:1001300008951F920F920FB60F9211248F939F93E1
:10014000AF93BF9380910E0190910F01A091100188
:10015000B09111010197A109B10980930E0190930B
:100160000F01A0931001B0931101892B8A2B8B2BC7
:1001700099F481E080931201809100019091010136
:10018000A0910201B091030180930E0190930F01A1
:10019000A0931001B0931101BF91AF919F918F91E6
:1001A0000F900FBE0F901F901895181619065CF04F
:1001B0000895000021503109E1F74F5F5F4F841728
:1001C000950719F4089540E050E027E033E0F1CFBF
:1001D00016988BB9179A0000179882E090E0E5CF47
:1001E000089581E0F5CF0895813118F48158F0CF5A
:1001F00008958155EDCF089584E690E0D6DF88E339
:10020000E7DF86E0E5DF8FE0E3DF81E0E1DF8AE042
:1002100090E0CBCF0895169A8BB9179A00001798E3
:1002200081E090E0C2CF08950F931F93CF93DF93A7
:10023000182FEB01D6DF8881882351F001E0010FF0
:10024000812FD2DF8991E7DF102F88818111F6CFCE
:10025000DF91CF911F910F9108958FEF81B912B85F
:1002600084B915B887B918B88AB91BB864EF71E0BA
:1002700080E090E029DF39DFBFDFB3DF81E0B4DF6A
:0E02800064E071E081E0D0DFFFCFF894FFCFA3
:0E028E000100000048656C6C6F20576F720015
:00000001FF
