S02100006D636F796E3030315F786665726E3030315F6C616230325F322E73726563B8
S113000045C0000060C000005EC000005CC000008D
S11300105AC0000058C0000056C0000054C0000080
S113002052C0000050C000004EC000004CC0000090
S11300304AC0000090C0000046C0000044C0000058
S113004042C0000040C000003EC000003CC00000B0
S11300503AC0000038C0000036C0000034C00000C0
S113006032C0000030C000002EC000002CC00000D0
S11300702AC0000028C0000026C0000024C00000E0
S113008022C0000020C000001EC0000011241FBEBA
S1130090CFEFD0E4DEBFCDBF11E0A0E0B1E0E4ECEF
S11300A0F4E000E00BBF02C007900D92AA30B10744
S11300B0D9F721E0AAE0B1E001C01D92A833B2074C
S11300C0E1F74AD1FDC19CCF8130910551F42091D3
S11300D03701222351F020913601209520933601D7
S11300E00895009711F481E090E008956093000171
S11300F070930101809302019093030160932B019B
S113010070932C0180932D0190932E0108958BE020
S1130110809381008DE790E090938900809388001C
S113012082E080936F001092850010928400809189
S1130130000190910101A0910201B091030180930B
S11301402B0190932C01A0932D01B0932E018FB716
S113015080688FBF08951F920F920FB60F921124DB
S11301608F939F93AF93BF9380912B0190912C0118
S1130170A0912D01B0912E010197A109B10980939D
S11301802B0190932C01A0932D01B0932E01892B68
S11301908A2B8B2B99F481E080932F0180910001AD
S11301A090910101A0910201B091030180932B0170
S11301B090932C01A0932D01B0932E01BF91AF9188
S11301C09F918F910F900FBE0F901F9018958130C3
S11301D081F0E1ECF0E0808188618083E2ECF0E082
S11301E080818660808383E38093C4001092C5007D
S11301F00895E9ECF0E0808188618083EAECF0E026
S113020080818660808383E38093CC001092CD004C
S11302100895813029F48091C800882374F00895EA
S11302208091C00088238CF4A6ECB0E0E0ECF0E010
S11302308C9180818823E4F30895AEECB0E0E8EC7F
S1130240F0E08C9180818823E4F30895613041F0DB
S1130250E0ECF0E0908195FFFDCF8093C600089517
S1130260E8ECF0E0908195FFFDCF8093CE000895F7
S113027081309105B1F480913201982F90952091AD
S113028036012923909137019823822F892B82B933
S11302908091C80085FF0EC061E080913601D6DFF1
S11302A009C0009721F08130910541F403C081E039
S11302B090E008958091C80081E090E00895813035
S11302C041F0E0ECF0E080818823ECF78091C600F7
S11302D00895E8ECF0E080818823ECF78091CE006B
S11302E00895CF93DF93EC018130910569F58091F6
S11302F0C00088238CF410923701109235011092BB
S1130300340180E0DCDF8093330180E082DF809180
S113031033018E7082B91CC08091340190913501F3
S113032001969093350180933401209130013091EE
S113033031018217930764F08FEF80933701109295
S113034035011092340104C0892B11F4C1E0D0E0CE
S1130350CE01DF91CF910895CF93DF9300D000D0E9
S113036000D0CDB7DEB78FEF81B912B89EEF94B944
S113037015B887B918B88AEF8AB91BB880E027DFA7
S113038080E047DF81E023DF81E043DF6AE070E063
S113039080E090E0ABDEBBDE81E08093320110921E
S11303A03701109235011092340186E990E0909360
S11303B031018093300186E0E4E0F1E0DE01119642
S11303C001900D928A95E1F7E0E2F1E0108282E07B
S11303D090E0A0E0B0E081839283A383B48385831B
S11303E09683A783B08728E331E032872187E5E14C
S11303F0F1E0108281839283A383B48385839683FF
S1130400A783B08781E791E092878187EAE0F1E0F2
S1130410108282E390E0A0E0B0E081839283A38322
S1130420B48385839683A783B08784E690E092871C
S1130430818710923601109233017E0187E0E80E25
S1130440F11CDE0111966D01F601019111916F010C
S1130450D80115964D915D916D917C9118971196E7
S11304608D919D910D90BC91A02D481759076A0755
S11304707B0781F4F80180810184F285E02D082E48
S1130480000C990B0995D8018C93F80115821682FA
S113049017821086F80185819681A781B08501961F
S11304A0A11DB11D85839683A783B087CE14DF0475
S11304B059F680912F018823E1F310922F01C1CFC7
S10704C0F894FFCFDA
S10D04C4010000000A0120011501E7
S9030000FC
