:1000000045C0000060C000005EC000005CC0000091
:100010005AC0000058C0000056C0000054C0000084
:1000200052C0000050C000004EC000004CC0000094
:100030004AC00000BDC0000046C0000044C000002F
:1000400042C0000040C000003EC000003CC00000B4
:100050003AC0000038C0000036C0000034C00000C4
:1000600032C0000030C000002EC000002CC00000D4
:100070002AC0000028C0000026C0000024C00000E4
:1000800022C0000020C000001EC0000011241FBEBE
:10009000CFEFD0E4DEBFCDBF11E0A0E0B1E0E8EEED
:1000A000F3E000E00BBF02C007900D92A430B1074F
:1000B000D9F721E0A4E0B1E001C01D92A231B2075E
:1000C000E1F75CD18FC19CCF181619065CF008953A
:1000D000000021503109E1F74F5F5F4F841795070A
:1000E00019F4089540E050E027E033E0F1CF109894
:1000F0008BB9119A0000119882E090E0E5CF089545
:1001000081E0F5CF0895813118F48158F0CF08953A
:100110008155EDCF089584E690E0D6DF88E3E7DFF0
:1001200086E0E5DF8FE0E3DF81E0E1DF8AE090E079
:10013000CBCF0895109A8BB9119A0000119881E0E5
:1001400090E0C2CF08956093000170930101809305
:1001500002019093030160930A0170930B01809355
:100160000C0190930D0108958BE0809381008DE741
:1001700090E0909389008093880082E080936F00E4
:1001800010928500109284008091000190910101ED
:10019000A0910201B091030180930A0190930B0199
:1001A000A0930C01B0930D018FB780688FBF0895A5
:1001B0001F920F920FB60F9211248F939F93AF93BC
:1001C000BF9380910A0190910B01A0910C01B09115
:1001D0000D010197A109B10980930A0190930B01C8
:1001E000A0930C01B0930D01892B8A2B8B2B99F4D2
:1001F00081E080930E018091000190910101A09116
:100200000201B091030180930A0190930B01A09326
:100210000C01B0930D01BF91AF919F918F910F9001
:100220000FBE0F901F90189580B1809580748093B9
:10023000100190910F01913051F028F0923059F057
:10024000933069F010C091E090930F0112C092E0DA
:1002500090930F0123C093E090930F0134C091E07D
:1002600090930F0106C09230C9F0933061F1913044
:10027000F1F521E030E0309309012093080181116C
:1002800036C08091040190910501181619067CF57D
:1002900001979093050180930401089522E030E0D6
:1002A0003093090120930801811121C0809104013C
:1002B0009091050189309105D4F401969093050140
:1002C00080930401089524E030E0309309012093E5
:1002D000080181110CC0809104019091050118164C
:1002E00019062CF401979093050180930401089559
:1002F00080911101823099F028F4882341F08130F7
:1003000051F019C0833079F0843089F014C081E055
:10031000809311011BC082E0809311011EC083E015
:100320008093110121C084E08093110122C081E0FB
:10033000809311010BC0823081F018F48130E9F410
:1003400005C0833089F08430C1F413C088E090E0A8
:100350009093070180930601089588E090E09093C0
:10036000070180930601089510920701109206017B
:100370000895109207011092060108958FEF84B935
:1003800015B88AB91BB881B912B8C5DEB9DE81E0EB
:10039000BADE64EF71E080E090E0D5DEE5DE109239
:1003A0000F01109211010F2EF8E0EF2EF1E0FF2E59
:1003B000F02D06E011E0C4E0D1E036DF99DFF7016F
:1003C0009081F8018081890F85B99ADE81E09BDEFA
:1003D0008881805DAFDE80910E018823E1F3109269
:0803E0000E01EBCFF894FFCFF2
:0403E8000100000010
:00000001FF
