S0150000786665726E3030315F4C6162312E73726563BC
S113000045C0000060C000005EC000005CC000008D
S11300105AC0000058C0000056C0000054C0000080
S113002052C0000050C000004EC000004CC0000090
S11300304AC000007EC0000046C0000044C000006A
S113004042C0000040C000003EC000003CC00000B0
S11300503AC0000038C0000036C0000034C00000C0
S113006032C0000030C000002EC000002CC00000D0
S11300702AC0000028C0000026C0000024C00000E0
S113008022C0000020C000001EC0000011241FBEBA
S1130090CFEFD0E4DEBFCDBF11E0A0E0B1E0EAE9EC
S11300A0F2E000E00BBF02C007900D92A430B1074C
S11300B0D9F721E0A4E0B1E001C01D92AB30B20752
S11300C0E1F7D1D0E8C09CCF6093000170930101A7
S11300D080930201909303016093040170930501DE
S11300E0809306019093070108958BE0809381002B
S11300F08DE790E0909389008093880082E080935C
S11301006F001092850010928400809100019091FC
S11301100101A0910201B091030180930401909325
S11301200501A0930601B09307018FB780688FBFC4
S113013008951F920F920FB60F9211248F939F93DD
S1130140AF93BF938091040190910501A0910601A2
S1130150B09107010197A109B1098093040190931B
S11301600501A0930601B0930701892B8A2B8B2BE1
S113017099F481E08093080180910001909101013C
S1130180A0910201B09103018093040190930501B1
S1130190A0930601B0930701BF91AF919F918F91F6
S11301A00F900FBE0F901F90189580910901813018
S11301B051F028F0823059F0833069F010C081E0AA
S11301C08093090112C082E08093090113C083E087
S11301D08093090114C081E08093090106C0823034
S11301E049F0833061F0813071F485B1887F81609A
S11301F085B9089585B1887F826085B9089585B1F0
S1130200887F846085B9089580910A01823099F0CD
S113021028F4882341F0813051F019C0833079F0FB
S1130220843089F014C081E080930A0116C082E012
S113023080930A0114C083E080930A0112C084E011
S113024080930A01089581E080930A0106C08230F8
S113025031F0833031F0813029F42B9A08952B9AB0
S113026008952B98089511B812B88FEF84B915B872
S113027064EF71E080E090E027DF37DF109209013E
S113028010920A0192DFC0DF809108018823E1F314
S10D029010920801F7CFF894FFCF95
S107029A010000005B
S9030000FC
