S01400006C61625F335F6D61737465722E7372656364
S113000059C0000074C0000072C0000070C000003D
S11300106EC000006CC000006AC0000068C0000030
S113002066C0000064C0000062C0000060C0000040
S11300305EC0000092C000005AC0000058C000001A
S113004056C0000054C0000052C00000D4C10000DB
S11300504EC000004CC000004AC0000048C0000070
S113006046C0000044C0000042C0000040C0000080
S11300703EC000003CC000003AC0000038C0000090
S113008036C0000034C0000032C0000050035303E7
S113009057035B035F03630367036E0375037B030B
S11300A07B037B037B037B037B037B0335033B03E2
S11300B04203490311241FBECFEFD0E4DEBFCDBFFE
S11300C011E0A0E0B1E0E2E8F7E000E00BBF02C01D
S11300D007900D92A232B107D9F721E0A2E2B1E074
S11300E001C01D92A835B207E1F702D248C388CFF8
S11300F0609318017093190180931A0190931B0166
S113010060934301709344018093450190934601A9
S113011008958BE0809381008DE790E090938900AF
S11301208093880082E080936F0010928500109283
S113013084008091180190911901A0911A01B09145
S11301401B018093430190934401A0934501B09314
S113015046018FB780688FBF08951F920F920FB624
S11301600F9211248F939F93AF93BF938091430178
S113017090914401A0914501B09146010197A109D4
S1130180B1098093430190934401A0934501B09336
S11301904601892B8A2B8B2B99F481E080934701AC
S11301A08091180190911901A0911A01B0911B013D
S11301B08093430190934401A0934501B093460179
S11301C0BF91AF919F918F910F900FBE0F901F9091
S11301D01895181619065CF008950000215031098D
S11301E0E1F74F5F5F4F8417950719F4089540E0D6
S11301F050E027E033E0F1CF10988BB9119A00005A
S1130200119882E090E0E5CF089581E0F5CF08955C
S1130210813118F48158F0CF08958155EDCF0895B8
S113022084E690E0D6DF88E3E7DF86E0E5DF8FE071
S1130230E3DF81E0E1DF8AE090E0CBCF0895109A1C
S11302408BB9119A0000119881E090E0C2CF089513
S11302500F931F93CF93DF93182FEB01D6DF888181
S1130260882351F001E0010F812FD2DF8991E7DF6C
S1130270102F88818111F6CFDF91CF911F910F91BB
S11302800895EF92FF920F931F93CF93DF93CDB70F
S1130290DEB7A1970FB6F894DEBF0FBECDBF8C01B9
S11302A0009721F08130910589F15FC010924C01D3
S11302B0109249011092530181E0809355011092EC
S11302C04E018093540110924B0110924A0181E334
S11302D08093150180930B01809304018E010F5FBD
S11302E01F4F81E2F80111928A95E9F76FE071E0FE
S11302F0C8013AD266E071E0C80136D260E071E02C
S1130300C80132D2B80181E0A3DF31C0809152012B
S1130310882379F180914C018F5C80931501809141
S113032053018F5C80930B0180915501805D809314
S11303300401CE0101967C0181E2F70111928A95B4
S1130340E9F76FE071E0C7010FD266E071E0C70121
S11303500BD260E071E0C70107D2B70181E078DF1A
S113036010924E011092520104C0892B11F401E045
S113037010E0C801A1960FB6F894DEBF0FBECDBF42
S1130380DF91CF911F910F91FF90EF90089580EB33
S113039084B981E58CBD08958EBD0DB407FEFDCFF3
S11303A00895CF93DF93EC01009721F082309105FB
S11303B029F014C08FEF8093520112C095B180913F
S11303C051018095892385B995B18091510180951A
S11303D0892B85B980914F01DFDF04C0892B11F48B
S11303E0C2E0D0E0CE01DF91CF9108950DB407FEB5
S11303F0FDCF8EB508951F920F920FB60F92112460
S11304000BB60F922F933F934F935F936F937F930A
S11304108F939F93AF93BF93CF93EF93FF93CEB5F7
S1130420E5DF682F8C2F8BD180934D01FF91EF91E5
S1130430CF91BF91AF919F918F917F916F915F9178
S11304404F913F912F910F900BBE0F900FBE0F90C5
S11304501F9018958FEE88B90000309B29C0319BFE
S113046029C0329B29C0339B29C08FED88B9000075
S1130470309B26C0319B26C0329B26C0339B26C0AE
S11304808FEB88B90000309B23C0319B23C0329B83
S113049023C0339B23C08FE788B90000309B20C062
S11304A0319B20C0329B20C0339B20C080E0089544
S11304B081E3089584E3089587E308958AE2089523
S11304C082E3089585E3089588E3089580E3089519
S11304D083E3089586E3089589E3089583E2089504
S11304E081E4089582E4089583E4089584E40895FA
S11304F0CF93DF9300D000D000D0CDB7DEB78FEF1D
S113050081B990E192B910EF17B918B88AB91BB83C
S113051062E370E080E090E0EBDDFBDD81DE75DE20
S1130520109356018FE08093480186E0ECE1F1E0FE
S1130530DE01119601900D928A95E1F7E8E3F1E06E
S1130540108283E090E0A0E0B0E081839283A383F3
S1130550B48385839683A783B08781ED91E09287E6
S11305608187EDE2F1E0108281E090E0A0E0B0E06C
S113057081839283A383B48385839683A783B0877F
S113058087E893E092878187E2E2F1E0108282E0DB
S113059090E0A0E0B0E081839283A383B483858359
S11305A09683A783B08781E491E092878187109234
S11305B04F01189B04C08FEF8093570102C0109223
S11305C05701E5DE84B18F6084B97E0187E0E80ECF
S11305D0F11CDE0111966D01F601019111916F017B
S11305E0D80115964D915D916D917C911897119656
S11305F08D919D910D90BC91A02D481759076A07C4
S11306007B0781F4F80180810184F285E02D082EB6
S1130610000C990B0995D8018C93F8011582168268
S113062017821086F80185819681A781B08501968D
S1130630A11DB11D85839683A783B087CE14DF04E3
S113064059F6809147018823E1F310924701C1CF05
S1130650E09150018E2F90E0FC01F197E431F10517
S113066008F049C0EA5BFF4F76C010924C0182E06B
S11306708093490140C081E080934C0182E08093E3
S1130680490139C082E080934C018EE08093490196
S113069032C083E080934C0181E1809349012BC0F7
S11306A01092530128C081E08093530124C082E05A
S11306B08093530120C083E0809353011CC084E0E5
S11306C08093530118C085E08093530114C081E0E6
S11306D08093550180E1809351010DC082E08093A5
S11306E0550188E08093510106C083E08093550151
S11306F084E08093510180914C0120E1829FC001EC
S1130700112490915301892B80934F010895CF9325
S1130710DF93EC018130910551F49CDE809350010C
S1130720882349F095DF8FEF8093520104C0892B11
S113073011F4C1E0D0E0CE01DF91CF910895991B6F
S113074079E004C0991F961708F0961B881F7A95C4
S1130750C9F780950895EE0FFF1F0024001C0BBEFF
S11307600790F691E02D0994FB01DC010D90002027
S1130770E9F7119701900D920020E1F70895F8949C
S1050780FFCFA5
S113078275433A2030005370643A203020200050E0
S113079274726E3A203020000100000038012D01ED
S10507A222012E
S9030000FC
