:1000000045C0000060C000005EC000005CC0000091
:100010005AC0000058C0000056C0000054C0000084
:1000200052C0000050C000004EC000004CC0000094
:100030004AC000007EC0000046C0000044C000006E
:1000400042C0000040C000003EC000003CC00000B4
:100050003AC0000038C0000036C0000034C00000C4
:1000600032C0000030C000002EC000002CC00000D4
:100070002AC0000028C0000026C0000024C00000E4
:1000800022C0000020C000001EC0000011241FBEBE
:10009000CFEFD0E4DEBFCDBF11E0A0E0B1E0ECEAED
:1000A000F4E000E00BBF02C007900D92A830B1074A
:1000B000D9F721E0A8E0B1E001C01D92AC32B2074F
:1000C000E1F772D1F1C19CCF6093040170930501F7
:1000D00080930601909307016093200170932101A2
:1000E000809322019093230108958BE080938100F7
:1000F0008DE790E0909389008093880082E0809360
:100100006F001092850010928400809104019091FC
:100110000501A0910601B091070180932001909301
:100120002101A0932201B09323018FB780688FBF74
:1001300008951F920F920FB60F9211248F939F93E1
:10014000AF93BF938091200190912101A091220152
:10015000B09123010197A109B109809320019093E7
:100160002101A0932201B0932301892B8A2B8B2B91
:1001700099F481E08093240180910401909105011C
:10018000A0910601B0910701809320019093210175
:10019000A0932201B0932301BF91AF919F918F91C2
:1001A0000F900FBE0F901F901895181619065CF04F
:1001B0000895000021503109E1F74F5F5F4F841728
:1001C000950719F4089540E050E027E033E0F1CFBF
:1001D00010988BB9119A0000119882E090E0E5CF59
:1001E000089581E0F5CF0895813118F48158F0CF5A
:1001F00008958155EDCF089584E690E0D6DF88E339
:10020000E7DF86E0E5DF8FE0E3DF81E0E1DF8AE042
:1002100090E0CBCF0895109A8BB9119A00001198F5
:1002200081E090E0C2CF0895009721F081309105E0
:1002300039F025C086E080932B011092280125C05B
:10024000D0DF82E0D1DF80912901805DE4DF84E0AE
:10025000CBDF80912601805DDEDF86E0C5DF809107
:100260002501805DD8DF88E0BFDF80912A01805DB5
:10027000D2DF809128018F5F8093280109C0009709
:1002800021F081309105A1F403C081E090E0089550
:100290009091280180912B01891740F41092280138
:1002A000A0DF1092130181E090E0089581E090E0DA
:1002B000089590912901890F8A3010F480932901C3
:1002C0000895AC0130B13072309530723093260110
:1002D00020B12074209520742093250190B1907155
:1002E0009095907190932A01911103C0109227016B
:1002F00007C020932701903119F481E08093130106
:100300004230510561F13CF44115510559F041303D
:10031000510571F033C04330510531F1443051057E
:1003200041F12CC084E08093290141E050E03AC0C3
:10033000332341F021110EC081E090E0BADF42E0AA
:1003400050E030C0222371F18FEF9FEFB2DF43E026
:1003500050E028C01092290144E050E023C033232C
:1003600081F02223F9F010C0311111C021111AC0FF
:1003700011C0332391F0211115C012C041E050E0AB
:1003800011C041E050E00EC041E050E00BC041E040
:1003900050E008C041E050E005C041E050E002C03C
:1003A00041E050E0CA01089583E081B912B880EFBE
:1003B00087B918B88FEF8AB91BB862E370E080E0A4
:1003C00090E082DE92DE18DF0CDFE4E1F1E01082E3
:1003D00082E090E0A0E0B0E081839283A383B483C5
:1003E00085839683A783B08781E691E09287818792
:1003F00081E08387E8E0F1E010828AE090E0A0E00D
:10040000B0E081839283A383B48385839683A7839B
:10041000B08784E191E092878187138604E011E040
:10042000C0E0D1E06E01E880F980D70115964D91CA
:100430005D916D917C91189711968D919D910D9084
:10044000BC91A02D481759076A077B07A0F0F70158
:100450008385882381F080810184F285E02D082E38
:10046000000C990B0995D7018C93E881F9811582CD
:10047000168217821086D601ED91FC912296858115
:100480009681A781B0850196A11DB11D85839683B4
:10049000A783B087C017D10729F68091240188234C
:0C04A000E1F310922401BCCFF894FFCFD0
:0804AC00140108010100000029
:00000001FF
