:1000000045C0000060C000005EC000005CC0000091
:100010005AC0000058C0000056C0000054C0000084
:1000200052C0000050C000004EC000004CC0000094
:100030004AC000000AC1000046C0000044C00000E1
:1000400042C0000040C000003EC000003CC00000B4
:100050003AC0000038C0000036C0000034C00000C4
:1000600032C0000030C000002EC000002CC00000D4
:100070002AC0000028C0000026C0000024C00000E4
:1000800022C0000020C000001EC0000011241FBEBE
:10009000CFEFD0E4DEBFCDBF11E0A0E0B1E0EAEAEF
:1000A000F4E000E00BBF02C007900D92A430B1074E
:1000B000D9F721E0A4E0B1E001C01D92A332B2075C
:1000C000E1F73ED1F0C19CCF8130910569F01CF47D
:1000D000009741F04CC082309105E1F083309105EA
:1000E00079F145C015B851C080911F019091200150
:1000F000892B59F08091210190912201009729F0DC
:100100000197909322018093210185B1887F85B961
:10011000289A3EC080911F0190912001892B59F0AF
:100120008091210190912201009729F001979093ED
:1001300022018093210185B1887F85B9299A2BC03E
:1001400080911F0190912001892B61F08091210104
:10015000909122018930910528F401969093220113
:100160008093210185B1887F85B92A9A17C0813093
:10017000910571F01CF4009799F407C08230910545
:1001800051F08330910561F409C081E090E0089559
:1001900082E090E0089583E090E0089581E090E0AF
:1001A00008958130910539F08230910531F0009742
:1001B00031F415B80CC02B9A0DC02B980EC08130AD
:1001C000910541F08230910541F0009741F481E0C2
:1001D00090E0089582E090E0089581E090E0089535
:1001E00060930001709301018093020190930301D9
:1001F00060931A0170931B0180931C0190931D0161
:1002000008958BE0809381008DE790E090938900C2
:100210008093880082E080936F0010928500109296
:1002200084008091000190910101A0910201B091A0
:10023000030180931A0190931B01A0931C01B093BA
:100240001D018FB780688FBF08951F920F920FB660
:100250000F9211248F939F93AF93BF9380911A01B4
:1002600090911B01A0911C01B0911D010197A10962
:10027000B10980931A0190931B01A0931C01B093C4
:100280001D01892B8A2B8B2B99F481E080931E0111
:100290008091000190910101A0910201B0910301B0
:1002A00080931A0190931B01A0931C01B0931D0130
:1002B000BF91AF919F918F910F900FBE0F901F90A4
:1002C0001895181619065CF00895000021503109A0
:1002D000E1F74F5F5F4F8417950719F4089540E0E9
:1002E00050E027E033E0F1CF10988BB9119A00006D
:1002F000119882E090E0E5CF089581E0F5CF089570
:10030000813118F48158F0CF08958155EDCF0895CB
:1003100084E690E0D6DF88E3E7DF86E0E5DF8FE084
:10032000E3DF81E0E1DF8AE090E0CBCF0895109A2F
:100330008BB9119A0000119881E090E0C2CF089526
:10034000CF93DF9300D000D0CDB7DEB78BEF81B96C
:1003500012B88FEF84B915B887B918B88AB91BB825
:10036000109222011092210164EF71E080E090E090
:1003700037DF47DFCDDFC1DF81E0C2DF80912101C0
:10038000805DD5DFAFE0B1E0BA83A983E4E0F1E0BE
:10039000FC83EB831C9241E050E060E070E011963A
:1003A0004D935D936D937C93149715964D935D9348
:1003B0006D937C93189784E690E01A969C938E93A5
:1003C0001997108282E090E0A0E0B0E081839283F0
:1003D000A383B48385839683A783B08781ED90E060
:1003E000928781876E0185E0C80ED11CAA24A39450
:1003F000B12C0F2EF1E2EF2EF1E0FF2EF02DDE01F9
:1004000011964D01F401019111914F01D8011596FA
:100410004D915D916D917C91189711968D919D9163
:100420000D90BC91A02D481759076A077B0781F4EE
:10043000F80180810184F285E02D082E000C990BD3
:100440000995D8018C93F8011582168217821086BF
:10045000F80185819681A781B0850196A11DB11D06
:1004600085839683A783B0878C149D0459F61092D8
:10047000200110921F0106C0029904C0B092200111
:10048000A0921F0180911E018823B1F310921E01DA
:10049000D7018C9188B931DF81E032DFF7018081AB
:0A04A000805D45DFACCFF894FFCF7C
:0404AA00010000004D
:00000001FF
