S01400004672656552544F535F6C61622E73726563B8
S113000045C0000060C000005EC000005CC000008D
S11300105AC0000058C0000056C0000054C0000080
S113002052C0000050C000004EC000004CC0000090
S11300304AC00000F0C2000046C0000044C00000F6
S113004042C0000040C000003EC000003CC00000B0
S11300503AC0000038C0000036C0000034C00000C0
S113006032C0000030C000002EC000002CC00000D0
S11300702AC0000028C0000026C0000024C00000E0
S113008022C0000020C000001EC0000011241FBEBA
S1130090CFEFD0E4DEBFCDBF11E0A0E0B1E0E8EEE9
S11300A0FCE000E00BBF02C007900D92AC31B10739
S11300B0D9F727E0ACE1B1E001C01D92AC35B2073D
S11300C0E1F786D00FC69CCFCFEF009BC0935A07B1
S11300D08AE090E091D5F9CF80915B07813081F07F
S11300E018F0823099F018C01BB881E0809359074A
S11300F080915B07813009F1C0F08230B1F527C0EF
S113010080915907880F8093590713C0809159072C
S11301108695809359071BC01BB880915B0781307B
S113012041F018F0823009F512C081E080935B073A
S11301301EC080915907803821F080915A07882386
S1130140B1F082E080935B0710925A0710C080914F
S11301505907813021F080915A07882341F081E0CA
S113016080935B0710925A0702C010925B0780913C
S113017059078BB9089510925B07AEDF84EF91E0C5
S11301803BD5FBCFEF92FF920F93E12CF12C082F7C
S113019020E030E045E550E060E071E08BEB90E07A
S11301A0D0D20F91FF90EF900895EF92FF920F93AA
S11301B0E12CF12C082F20E030E045E550E06CE024
S11301C071E084E690E0BDD20F91FF90EF90089526
S11301D011B88FEF82B98AB981E0D4DF82E3E5DF19
S11301E0ADD380E090E00895CF93DF93EC01CED3BC
S11301F080911C0190911D01892B31F481E291E0E1
S113020090931D0180931C0120911E0130911F01C8
S1130210C9018C0F9D1F8B3D45E0940770F428178E
S1130220390770F4C0911C01D0911D01C20FD31F76
S113023090931F0180931E0105C0C0E0D0E002C06E
S1130240C0E0D0E060D4CE01DF91CF91089508954D
S1130250FC010396928381832FEF3FEF3483238342
S1130260968385839087878310820895FC01118685
S113027010860895CF93DF939C01FB01DC01119656
S1130280CD91DC911297D383C2838C819D81958318
S113029084838C819D81DC0113967C936E931297E9
S11302A07D836C8331872087F90180818F5F808310
S11302B0DF91CF910895CF93DF93EB01488159816A
S11302C04F3F2FEF520721F4FC01A781B0850DC0E9
S11302D0DC01139601C0DF011296ED91FC91139796
S11302E02081318142175307B0F71296ED91FC91AA
S11302F01397FB83EA83D583C483BD83AC831396AE
S1130300DC93CE93129799878887FC0120812F5F15
S11303102083DF91CF910895CF93DF93FC01A085D3
S1130320B185C281D381848195819D838C83C4816D
S1130330D581828193819B838A8311968D919C912F
S11303401297E817F90731F48481958112969C93EA
S11303508E931197118610868C9181508C938C9179
S1130360DF91CF91089531E1FC013083319722E28E
S113037020833197A3E3A0833197608331977083FF
S113038031971082319760E86083319710823197FA
S113039062E06083319763E06083319764E0608357
S11303A0319765E06083319766E06083319767E059
S11303B06083319768E06083319769E060833197A7
S11303C060E1608331973083319732E13083319734
S11303D033E13083319734E13083319735E1308331
S11303E0319736E13083319737E13083319738E103
S11303F03083319739E13083319730E2308331975C
S113040031E2308331972083319723E2208331977F
S1130410408331975083319726E22083319727E236
S11304202083319728E22083319729E22083319772
S113043020E32083319721E3208386970895109247
S113044089008CE7809388008BE080938100EFE63D
S1130450F0E0808182608083A0915707B0915807B3
S1130460CD91CDBFDD91DEBFFF91EF91DF91CF91B3
S1130470BF91AF919F918F917F916F915F914F91B8
S11304803F912F911F910F91FF90EF90DF90CF90AC
S1130490BF90AF909F908F907F906F905F904F90A0
S11304A03F902F901F900F900FBE0F90089581E002
S11304B008950F920FB6F8940F921F9211242F9261
S11304C03F924F925F926F927F928F929F92AF92E0
S11304D0BF92CF92DF92EF92FF920F931F932F93CD
S11304E03F934F935F936F937F938F939F93AF93B8
S11304F0BF93CF93DF93EF93FF93A0915707B091EE
S113050058070DB60D920EB60D9286D3A0915707DB
S1130510B0915807CD91CDBFDD91DEBFFF91EF9132
S1130520DF91CF91BF91AF919F918F917F916F9107
S11305305F914F913F912F911F910F91FF90EF90F9
S1130540DF90CF90BF90AF909F908F907F906F90EF
S11305505F904F903F902F901F900F900FBE0F9081
S113056008950F920FB6F8940F921F9211242F92B0
S11305703F924F925F926F927F928F929F92AF922F
S1130580BF92CF92DF92EF92FF920F931F932F931C
S11305903F934F935F936F937F938F939F93AF9307
S11305A0BF93CF93DF93EF93FF93A0915707B0913D
S11305B058070DB60D920EB60D92EED181112CD3C3
S11305C0A0915707B0915807CD91CDBFDD91DEBF03
S11305D0FF91EF91DF91CF91BF91AF919F918F9157
S11305E07F916F915F914F913F912F911F910F9147
S11305F0FF90EF90DF90CF90BF90AF909F908F903F
S11306007F906F905F904F903F902F901F900F902E
S11306100FBE0F900895A5DF1895E0911F07F09184
S113062020078081811107C08FEF9FEF909300070F
S11306308093FF060895E0911F07F091200705803D
S1130640F681E02D0680F781E02D828193819093DD
S113065000078093FF0608950BE017E00F2EF3E3E5
S1130660EF2EF7E0FF2EF02D80910A07882311F179
S11306700FB6F8940F92D8011596ED91FC91169748
S1130680C681D781CE01029647DE80910907815049
S11306908093090780910A07815080930A070F907D
S11306A00FBE8F89988DD3DDCE01D1DD80910A07ED
S11306B08111DECFF70180818230B0F2FADED4CF2F
S11306C00F931F93CF93DF93EC01009107071091D1
S11306D00807809157079091580702961DDEC00FB6
S11306E0D11FE0915707F0915807D383C283C017F5
S11306F0D10760F4609157077091580780911D07E6
S113070090911E076E5F7F4FD6DD16C0609157072C
S11307107091580780911F07909120076E5F7F4F5B
S1130720CADD8091FF0690910007C817D90720F40D
S1130730D0930007C093FF06DF91CF911F910F91D3
S113074008954F925F926F927F928F929F92AF9291
S1130750BF92CF92DF92EF92FF920F93CF93DF93EA
S11307604C016B015A012901CA013EDD3C01892B70
S113077009F4D3C086E290E037DDEC01892B59F00F
S1130780788E6F8A81E0A81AB108A60CB71CC11430
S1130790D10421F41FC0C3015ADDBFC0D6018C911E
S11307A0898F8C918823A1F0AE01465E5F4FF601DC
S11307B03196B8E0CB0ED11CCF012191DA012D93F3
S11307C0AD01DC018C91882319F0EC15FD05A1F72E
S11307D018A201C0198E043008F003E00E8B6E01DC
S11307E0B2E0CB0ED11CC60141DDCE010C963EDD3C
S11307F0D987C88784E090E0801B91099D878C8706
S1130800DB8BCA8B19A21AA21BA21CA21DA2A201D5
S1130810B401C501A8DD99838883E114F10419F0BA
S1130820F701D183C0830FB6F8940F928091090722
S11308308F5F809309078091570790915807892B00
S113084069F5D0935807C093570780910907813001
S1130850A9F583E397E0FCDC8CE397E0F9DC85E41D
S113086097E0F6DC8EE497E0F3DC8AE297E0F0DCD4
S113087081E297E0EDDC84E197E0EADC8BE097E04D
S1130880E7DC8AE297E09093200780931F0781E2D8
S113089097E090931E0780931D0710C08091050771
S11308A081110CC0E0915707F091580796898E8901
S11308B0891720F0D0935807C093570780910107F8
S11308C08F5F809301078E8990910607981710F423
S11308D08093060790E09C01220F331F220F331FE1
S11308E0220F331F820F931FB6018D5C984FC2DC19
S11308F00F900FBE80910507882359F0E0915707A8
S1130900F091580796898E89981728F4D2DD81E0F2
S113091005C081E003C081E001C08FEFDF91CF917A
S11309200F91FF90EF90DF90CF90BF90AF909F908A
S11309308F907F906F905F904F900895EF92FF9209
S11309400F930F2EFDEFEF2EF6E0FF2EF02D00E0BB
S113095020E030E045E550E067E171E08CE293E0AF
S1130960F0DE813079F4F8948FEF9FEF90930007D5
S11309708093FF0681E08093050710920807109288
S113098007075DDD0F91FF90EF9008958091FC06BD
S11309908F5F8093FC060895CF92DF92EF92FF92CF
S11309A00F931F93CF93DF938091FC06811195C021
S11309B0E0900707F09008078FEFE81AF80AF09222
S11309C00807E0920707E114F104B1F480911F07CE
S11309D09091200720911D0730911E073093200726
S11309E020931F0790931E0780931D078091020791
S11309F08F5F8093020711DE8091FF0690910007BC
S1130A00E816F90610F4D12C50C0D12CCC24C39490
S1130A10E0911F07F09120078081811107C08FEFBB
S1130A209FEF909300078093FF063FC0E0911F075C
S1130A30F09120070580F681E02DC681D7818A8157
S1130A409B81E816F90628F4909300078093FF062B
S1130A502CC08E010E5F1F4FC8015EDC8C899D89FE
S1130A60892B19F0CE010C9657DC8E8990910607DC
S1130A70981710F48093060790E09C01220F331F0F
S1130A80220F331F220F331F820F931FB8018D5C77
S1130A90984FF0DBE0915707F09158079E898689BB
S1130AA0981708F4B5CFDC2CB3CFE0915707F09139
S1130AB05807868990E0FC01EE0FFF1FEE0FFF1F21
S1130AC0EE0FFF1F8E0F9F1FFC01ED5CF84F80811E
S1130AD0823048F0DD24D39406C0809104078F5FF0
S1130AE080930407D12C80910307882311F0DD241F
S1130AF0D3948D2DDF91CF911F910F91FF90EF90A3
S1130B00DF90CF900895DF92EF92FF920F931F939F
S1130B10CF93DF930FB6F8940F928091FC06815027
S1130B208093FC068091FC06811159C080910907CD
S1130B30811130C057C0D7011596ED91FC911697DD
S1130B40C681D781CE010C96E7DB8E010E5F1F4F65
S1130B50C801E2DB8E8990910607981710F4809300
S1130B60060790E09C01220F331F220F331F220F30
S1130B70331F820F931FB8018D5C984F7BDBE0918C
S1130B805707F09158079E898689981768F0D09284
S1130B9003070AC0C0E0D0E00F2EF4E1EF2EF7E027
S1130BA0FF2EF02DDD24D394F70180818111C3CF72
S1130BB0CD2B09F032DDC0910407CC2349F0D1E0FC
S1130BC0EBDE8111D0930307C150D1F710920407D3
S1130BD080910307882329F06CDC81E003C080E066
S1130BE001C080E00F900FBEDF91CF911F910F9154
S1130BF0FF90EF90DF900895CF93DF93EC01892B62
S1130C0039F0C4DE60E0CE015BDD7DDF811101C01F
S1130C1050DCDF91CF9108958091FC06882321F068
S1130C2081E080930307089510920307209106073B
S1130C30822F90E0FC01EE0FFF1FEE0FFF1FEE0F5F
S1130C40FF1FE80FF91FED5CF84F3081311111C01F
S1130C502150822F90E0FC01EE0FFF1FEE0FFF1FCB
S1130C60EE0FFF1FE80FF91FED5CF84F30813323BF
S1130C7079F3AC01440F551F440F551F440F551F02
S1130C80480F591FDA01AD5CB84F1196ED91FC91F4
S1130C9012970280F381E02D1296FC93EE93119744
S1130CA04A5C584FE417F50729F442815381FD014A
S1130CB052834183FC01EE0FFF1FEE0FFF1FEE0F67
S1130CC0FF1F8E0F9F1FFC01ED5CF84F0180F28126
S1130CD0E02D86819781909358078093570720933E
S10B0CE006070895F894FFCF04
S1130CE84C65645365635461736B30004275747466
S10F0CF86F6E5461736B0049444C45005E
S9030000FC
