:1000000045C000004BC0000049C0000047C00000D0
:1000100045C0000043C0000041C000003FC00000D8
:100020003DC000003BC0000039C0000037C00000E8
:1000300035C0000033C0000031C000002FC00000F8
:100040002DC000002BC0000029C0000027C0000008
:1000500025C0000023C0000021C000001FC0000018
:100060001DC000001BC0000019C0000017C0000028
:1000700015C0000013C0000011C000000FC0000038
:100080000DC000000BC0000009C0000011241FBEFD
:10009000CFEFD0E4DEBFCDBF0DD028C0B1CF80EB15
:1000A00084B981E58CBD08958EBD0DB407FEFDCFEA
:1000B0008EB508957894F3DF8FEF81B912B8509A16
:1000C000C0E010E0D0E103C0CD2F01C0C12FC2B904
:1000D0008C2FEADF2FEF89E698E121508040904095
:1000E000E1F700C00000C03179F7F0CFF894FFCFFE
:00000001FF
