S01A0000786665726E3030315F6C6162315F746573742E7372656378
S113000045C0000060C000005EC000005CC000008D
S11300105AC0000058C0000056C0000054C0000080
S113002052C0000050C000004EC000004CC0000090
S11300304AC000007EC0000046C0000044C000006A
S113004042C0000040C000003EC000003CC00000B0
S11300503AC0000038C0000036C0000034C00000C0
S113006032C0000030C000002EC000002CC00000D0
S11300702AC0000028C0000026C0000024C00000E0
S113008022C0000020C000001EC0000011241FBEBA
S1130090CFEFD0E4DEBFCDBF11E0A0E0B1E0E6EEEB
S11300A0F2E000E00BBF02C007900D92A430B1074C
S11300B0D9F721E0A4E0B1E001C01D92AF30B2074E
S11300C0E1F7EED00EC19CCF609300017093010163
S11300D080930201909303016093080170930901D6
S11300E080930A0190930B0108958BE08093810023
S11300F08DE790E0909389008093880082E080935C
S11301006F001092850010928400809100019091FC
S11301100101A0910201B091030180930801909321
S11301200901A0930A01B0930B018FB780688FBFB8
S113013008951F920F920FB60F9211248F939F93DD
S1130140AF93BF938091080190910901A0910A0196
S1130150B0910B010197A109B10980930801909313
S11301600901A0930A01B0930B01892B8A2B8B2BD5
S113017099F481E080930C01809100019091010138
S1130180A0910201B09103018093080190930901A9
S1130190A0930A01B0930B01BF91AF919F918F91EE
S11301A00F900FBE0F901F90189580910D01813014
S11301B051F028F0823059F0833069F010C081E0AA
S11301C080930D0112C082E080930D0115C083E07D
S11301D080930D0118C081E080930D0106C0823028
S11301E059F0833081F08130A1F481E090E0909364
S11301F0070180930601089582E090E0909307013F
S113020080930601089584E090E090930701809321
S11302100601089580910E01823099F028F4882314
S113022041F0813051F019C0833079F0843089F085
S113023014C081E080930E011BC082E080930E0104
S11302401EC083E080930E0121C084E080930E01E0
S113025022C081E080930E010BC0823081F018F43B
S11302608130E9F405C0833089F08430C1F413C0CF
S113027088E090E09093050180930401089588E05C
S113028090E0909305018093040108951092050174
S1130290109204010895109205011092040108952A
S11302A011B812B88FEF84B915B864EF71E080E02B
S11302B090E00ADF1ADF10920D0110920E0106E0A1
S11302C011E0C4E0D1E071DFA5DFF80190818881FD
S11302D0890F85B980910C018823E1F310920C01F8
S10902E0F2CFF894FFCFF9
S10702E6010000000F
S9030000FC
