S02100006D636F796E3030315F786665726E3030315F6C616230335F312E73726563B8
S113000059C0000074C0000072C0000070C000003D
S11300106EC000006CC000006AC0000068C0000030
S113002066C0000064C0000062C0000060C0000040
S11300305EC00000A3C000005AC0000058C0000009
S113004056C0000054C0000052C00000B4C10000FB
S11300504EC000004CC000004AC0000048C0000070
S113006046C0000044C0000042C0000040C0000080
S11300703EC000003CC000003AC0000038C0000090
S113008036C0000034C0000032C000004003430307
S113009047034B034F03530357035A035E036103A0
S11300A061036103610361036103610325032B039E
S11300B03203390311241FBECFEFD0E4DEBFCDBF1E
S11300C011E0A0E0B1E0E8EAF7E000E00BBF02C015
S11300D007900D92AC32B107D9F721E0ACE2B1E060
S11300E001C01D92AC36B207E1F7E2D15BC388CF01
S11300F08130910549F420916B01211109C02091AF
S11301006201209364010895009711F481E090E066
S113011008956093200170932101809322019093AC
S11301202301609358017093590180935A0190936D
S11301305B0108958BE0809381008DE790E09093BC
S113014089008093880082E080936F00109285007C
S1130150109284008091200190912101A0912201AC
S1130160B09123018093580190935901A0935A01AF
S1130170B0935B018FB780688FBF08951F920F9271
S11301800FB60F9211248F939F93AF93BF938091D7
S1130190580190915901A0915A01B0915B010197C6
S11301A0A109B1098093580190935901A0935A0170
S11301B0B0935B01892B8A2B8B2B99F481E080937C
S11301C05C018091200190912101A0912201B091C4
S11301D023018093580190935901A0935A01B0933D
S11301E05B01BF91AF919F918F910F900FBE0F90C4
S11301F01F901895181619065CF0089500002150F8
S11302003109E1F74F5F5F4F8417950719F408959B
S113021040E050E027E033E0F1CF10988BB9119A19
S11302200000119882E090E0E5CF089581E0F5CFD9
S11302300895813118F48158F0CF08958155EDCF98
S1130240089584E690E0D6DF88E3E7DF86E0E5DF23
S11302508FE0E3DF81E0E1DF8AE090E0CBCF089537
S1130260109A8BB9119A0000119881E090E0C2CFE6
S113027008950F931F93CF93DF93182FEB01D6DFCD
S11302808881882351F001E0010F812FD2DF899109
S1130290E7DF102F88818111F6CFDF91CF911F9175
S11302A00F9108950F931F93CF93DF93CDB7DEB7CC
S11302B061970FB6F894DEBF0FBECDBF009721F053
S11302C08130910591F139C01092610110925E0163
S11302D010926701109269011092630181E080938A
S11302E068011092600110925F0180916B01882374
S11302F031F181E38093130180930B0180E38093B8
S113030004018E010F5F1F4F81E1F80111928A955C
S1130310E9F76DE071E0C8013AD266E071E0C80126
S113032036D2B80181E0A5DF0AC020916B0121110A
S113033008C02091640122B904C0009711F481E03F
S113034090E061960FB6F894DEBF0FBECDBFDF918B
S1130350CF911F910F91089580EB84B981E58CBDF5
S113036008958EBD0DB407FEFDCF0895CF93DF939E
S1130370EC01009721F08230910521F00BC010921E
S113038066010AC080916B01882341F08091640169
S1130390E8DF04C0892B11F4C2E0D0E0CE01DF9184
S11303A0CF91089580E484B98CBD08950DB407FEFF
S11303B0FDCF8EB508951F920F920FB60F921124A0
S11303C00BB60F922F933F934F935F936F937F934B
S11303D08F939F93AF93BF93CF93EF93FF93CEB538
S11303E0E5DF682F8C2FBED180936201FF91EF91DE
S11303F0CF91BF91AF919F918F917F916F915F91B9
S11304004F913F912F910F900BBE0F900FBE0F9005
S11304101F9018958FEE88B90000309B29C0319B3E
S113042029C0329B29C0339B29C08FED88B90000B5
S1130430309B26C0319B26C0329B26C0339B26C0EE
S11304408FEB88B90000309B23C0319B23C0329BC3
S113045023C0339B23C08FE788B90000309B20C0A2
S1130460319B20C0329B20C0339B20C080E0089584
S113047081E3089584E3089587E308958AE2089563
S113048082E3089585E3089588E3089580E3089559
S113049083E3089586E3089589E3089583E2089544
S11304A081E4089582E4089583E4089584E408953A
S11304B0CF93DF93CDB7DEB728970FB6F894DEBF9E
S11304C00FBECDBF8FEF81B990E192B910EF17B98C
S11304D018B88AB91BB862E370E080E090E019DED6
S11304E029DEAFDEA3DE10936A018FE080935D0105
S11304F088E0E4E2F1E0DE01119601900D928A9524
S1130500E1F7EDE4F1E0108283E090E0A0E0B0E0F8
S113051081839283A383B48385839683A783B087DF
S113052086EB91E092878187E2E4F1E0108282E039
S113053090E0A0E0B0E081839283A383B4838583B9
S11305409683A783B08788E790E092878187E7E363
S1130550F1E0108281E090E0A0E0B0E0818392833A
S1130560A383B48385839683A783B08724E933E088
S113057032872187ECE2F1E0108281839283A383A6
S1130580B48385839683A783B08782E591E09287BD
S1130590818710926401189B05C08FEF80936B01D3
S11305A0DBDE03C010926B01FDDE7E0189E0E80E04
S11305B0F11CDE0111966D01F601019111916F019B
S11305C0D80115964D915D916D917C911897119676
S11305D08D919D910D90BC91A02D481759076A07E4
S11305E07B0781F4F80180810184F285E02D082ED7
S11305F0000C990B0995D8018C93F8011582168289
S113060017821086F80185819681A781B0850196AD
S1130610A11DB11D85839683A783B087CE14DF0403
S113062059F680915C018823E1F310925C01C1CFFB
S1130630E09165018E2F90E0FC01F197E431F10522
S113064008F03FC0EA5BFF4F99C01092610182E05D
S113065080935E0136C081E08093610182E08093E3
S11306605E012FC082E0809361018EE080935E0181
S113067028C083E08093610181E180935E0121C001
S1130680109267011EC081E0809367011AC082E066
S11306908093670116C083E08093670112C084E0F1
S11306A0809367010EC085E0809367010AC01092B1
S11306B0690107C081E08093690103C082E08093EF
S11306C069014091640150915D012091610180E1D3
S11306D0289F90011124242730916A012323242781
S11306E0852F80954823909167019523842F892B2A
S11306F0822B809364010895E09164018E2F82958A
S11307008F7080936101EF70E0936701F0E0EA5E1F
S1130710FE4F908190936801E82FF0E0E45EFE4F75
S1130720808180935E010895CF93DF93EC01813043
S1130730910581F480916B01882351F06BDE8093E5
S11307406501882359F074DF8FEF8093660106C03A
S1130750D3DF04C0892B11F4C1E0D0E0CE01DF91D6
S1130760CF910895991B79E004C0991F961708F05A
S1130770961B881F7A95C9F780950895EE0FFF1F81
S11307800024001C0BBE0790F691E02D0994FB0198
S1130790DC010D900020E9F7119701900D920020E3
S10B07A0E1F70895F894FFCF7E
S11307A875433A2030005370643A20300050747214
S11307B86E3A2030200028140A05020102020E11A4
S10F07C80100000037014D0142012C012A
S9030000FC
