S01E0000786665726E3030315F6D636F796E3030315F6C6162352E7372656379
S113000045C0000053C0000051C000004FC00000B4
S11300104DC000004BC0000049C0000047C00000B4
S113002045C0000043C0000041C000003FC00000C4
S11300303DC000003BC0000039C0000037C00000D4
S113004035C0000033C0000031C000002FC00000E4
S11300502DC000002BC0000029C0000027C00000F4
S113006025C0000023C0000021C000001FC0000004
S11300701DC000001BC0000019C0000017C0000014
S113008015C0000013C0000011C0000011241FBEE1
S1130090CFEFD0E4DEBFCDBF21E0A0E0B1E001C0EE
S11300A01D92A230B207E1F777D081C0A9CF20E03A
S11300B030E058E0E82FF0E055B945B1BF01022E19
S11300C002C0759567950A94E2F7962F9170942B68
S11300D095B92A9A2F5F3F4F2830310569F7299A3D
S11300E015B8089580910101823031F128F48823F4
S11300F041F0813091F02FC0833029F1843039F1FF
S11301002AC0009904C083E0809301012FC00199A3
S113011042C084E08093010134C0009906C0019973
S113012004C082E0809301011CC0009B34C0019B89
S113013032C0109201010895009B13C0019B11C0AD
S113014010920101089581E080930101089581E0F6
S1130150809301010895833049F0843091F0823016
S1130160D1F41092000180E0A2CF089580910001A3
S11301708F3F19F08F5F809300018091000197CF2A
S1130180089580910001882319F081508093000123
S1130190809100018CCF08958FEF84B915B880EF5A
S11301A087B98FE088B911B812B89CDFFECFF894F4
S10501B0FFCF7B
S9030000FC
